:020000040000FA
:100000000C9463000C948B000C948B000C948B006C
:100010000C948B000C948B000C948B000C948B0034
:100020000C948B000C948B000C948B000C948B0024
:100030000C948B000C948B000C948B000C948B0014
:100040000C94D9050C948B000C948B000C948B00B1
:100050000C948B000C948B000C948B000C948B00F4
:100060000C9423060C948B00000000002400270051
:100070002A0000000000250028002B0000000000DE
:1000800023002600290004040404040404040202DA
:100090000202020203030303030301020408102007
:1000A0004080010204081020010204081020000012
:1000B0000008000201000003040700000000000027
:1000C00000004207690B11241FBECFEFD8E0DEBF4E
:1000D000CDBF23E0A2E1B2E001C01D92AD36B20770
:1000E000E1F712E0A0E0B1E0E2E5FBE102C005903B
:1000F0000D92A231B107D9F710E0C2E6D0E004C0FA
:100100002197FE010E94A40BC136D107C9F70E94B6
:10011000D0070C949C0D0C9400000895089596E06F
:10012000899FD0011124A851BD4F90967C936E9366
:100130005F9791E091969C939197E0915503F09190
:10014000560390915403992339F0309751F081115F
:1001500008C0809104030994309719F05C968C9143
:10016000FACF0895CF92DF92EF92FF920F931F93F1
:1001700096E0899FF0011124E851FD4F11A2278DCF
:1001800030A12130310551F178F02230310509F4E8
:1001900051C02330310509F452C01F910F91FF90D7
:1001A000EF90DF90CF9008956623B9F361E070E09F
:1001B0000E948F002FB7F8948091D0029091D102C5
:1001C000A091D202B091D3022FBF809340039093AD
:1001D0004103A0934203B0934303DFCF9FB7F8944A
:1001E000C090D002D090D102E090D202F090D30221
:1001F0009FBF009140031091410320914203309131
:100200004303C01AD10AE20AF30A00915203109183
:10021000530330E020E00C151D052E053F0550F47A
:1002200062E070E01F910F91FF90EF90DF90CF9010
:100230000C948F006111B1CF63E070E0F3CF70E0F8
:1002400060E0F0CF0895AF92BF92CF92DF92EF922D
:10025000FF920F931F93CF93DF936C017B018B0170
:10026000040F151FEB015E01AE18BF08C017D107C0
:1002700059F06991D601ED91FC910190F081E02D4A
:10028000C6010995892B79F7C501DF91CF911F919F
:100290000F91FF90EF90DF90CF90BF90AF900895B7
:1002A000833081F028F4813099F08230A9F00895EC
:1002B0008730A9F08830C9F08430B1F48091800093
:1002C0008F7D03C0809180008F7780938000089598
:1002D00084B58F7784BD089584B58F7DFBCF8091E1
:1002E000B0008F778093B00008958091B0008F7D2B
:1002F000F9CFCF93DF93282F30E0F901E255FF4F7C
:100300008491F901E656FF4FD491F901EA57FF4F66
:10031000C491CC23A1F081110E945001EC2FF0E098
:10032000EE0FFF1FE458FF4FA591B491EC91ED2320
:1003300081E090E009F480E0DF91CF91089580E0C2
:1003400090E0FACF862F0C9479011F93CF93DF931F
:10035000282F30E0F901E255FF4F8491F901E6566C
:10036000FF4FD491F901EA57FF4FC491CC23A9F074
:10037000162F81110E945001EC2FF0E0EE0FFF1FAD
:10038000EE58FF4FA591B4918FB7F894EC911111ED
:1003900008C0D095DE23DC938FBFDF91CF911F91F2
:1003A0000895DE2BF8CF862F642F0C94A501CF93F0
:1003B000DF9390E0FC01E656FF4F24918A579F4F50
:1003C000FC0184918823C9F090E0880F991FFC01FB
:1003D000E859FF4FA591B491FC01EE58FF4FC5912C
:1003E000D49161110DC09FB7F8948C912095822310
:1003F0008C938881282328839FBFDF91CF91089514
:10040000623051F49FB7F8943C91822F80958323FA
:100410008C93E8812E2BEFCF8FB7F894EC912E2B95
:100420002C938FBFEACF862F642F0C94D7013FB750
:10043000F8948091C5029091C602A091C702B09134
:10044000C80226B5A89B05C02F3F19F00196A11D33
:10045000B11D3FBFBA2FA92F982F8827BC01CD010E
:10046000620F711D811D911D42E0660F771F881F6D
:10047000991F4A95D1F708958F929F92AF92BF929C
:10048000CF92DF92EF92FF924B015C010E94170224
:100490006B017C010E9417026C197D098E099F096E
:1004A000683E734081059105A8F321E0821A910806
:1004B000A108B10888EEC80E83E0D81EE11CF11C2B
:1004C00081149104A104B10429F7FF90EF90DF900B
:1004D000CF90BF90AF909F908F900895209153023E
:1004E000260F3327331F21323105ECF420919C0273
:1004F000FC0190E080E0243069F082E00895A09152
:1005000053022191AC014D5C5D4FA40FB52FB11D7D
:100510002C930196861798F380915302680F60938D
:10052000530280E0089581E0089510929C0281E0DA
:1005300080939B021092760261E082E10E94A50105
:1005400061E083E10E94A501E9EBF0E080818E7F0C
:10055000808380818D7F808388E48093B80085E4E8
:100560008093BC000895CF93DF9391E09093320283
:100570008823B9F0C091B800D091BA008091BC0036
:100580008A7B8093BC0060E082E10E94A50160E06C
:1005900083E10E94A5010E949502D093BA00C09306
:1005A000B800DF91CF9108950895E091DB0280912A
:1005B000DA02E81730F4F0E0EE5EFD4F808190E063
:1005C00008958FEF9FEF08959091DB028091DA02FA
:1005D0002FEF3FEF981748F4E92FF0E0EE5EFD4F64
:1005E000208130E09F5F9093DB02C90108958091E4
:1005F000DA029091DB02891B990B0895CF92DF926A
:10060000EF92FF920F931F93CF93DF937C01CB0167
:100610008A012091A202222389F0EB016B01C40E12
:10062000D51ECC15DD0569F06991D701ED91FC91DE
:100630000190F081E02DC7010995F3CF642F0E944E
:100640006E02C801DF91CF911F910F91FF90EF9043
:10065000DF90CF900895CF93DF931F92CDB7DEB791
:1006600069832091A2022223F9F02091D80220323E
:1006700058F021E030E0FC013383228390E080E0F9
:100680000F90DF91CF9108958091D902E82FF0E08B
:10069000ED55FD4F998190838F5F8093D9028093B0
:1006A000D80281E090E0ECCF61E0CE0101960E949B
:1006B0006E02F7CFCF92DF92EF92FF920F931F93CC
:1006C000CF93DF93FC01C48121E02093A202C09369
:1006D000C3021092D9021092D8028385682B8CED48
:1006E00092E00E942B03D091D802D13208F092C040
:1006F0000E9417026B017C0180919C02811165C0F0
:1007000082E080939C0281E080939B028FEF809334
:100710009A0210929902D0939802A3EAB2E0E8E715
:10072000F2E080E0D81385C01092770280917702C2
:10073000CC0FC82BC093770280917602813009F0EC
:100740007CC0109276020E9417026B017C0180919E
:1007500077028093BB0080919E0290919F02A091AE
:10076000A002B091A102892B8A2B8B2B99F00E94B9
:10077000170200919E0210919F022091A0023091D9
:10078000A1026C197D098E099F0906171707280712
:100790003907E0F18091BC0083FDD9CF85EC8093CF
:1007A000BC000E9417026B017C0180919C02823088
:1007B00009F445C080919A028F3F61F180919A02BD
:1007C000803241F180919A0225C080919E029091E1
:1007D0009F02A091A002B091A102892B8A2B8B2BA2
:1007E00009F48ACF0E94170200919E0210919F0285
:1007F0002091A0023091A1026C197D098E099F09F8
:10080000061717072807390708F076CF80919D0251
:100810000E94B3021092D9021092D8021092A20242
:10082000DF91CF911F910F91FF90EF90DF90CF90CC
:1008300008959D9191938F5F75CF85EEB0CF809194
:100840009E0290919F02A091A002B091A102892BDB
:100850008A2B8B2B09F4A9CF0E94170200919E02CC
:1008600010919F022091A0023091A1026C197D0984
:100870008E099F09061717072807390708F095CF33
:10088000C5CF90E080E0089561E08AE00E94A50174
:1008900060E08BE00E94A50168EE73E080E090E0EC
:1008A0000C943C020F931F93CF938C01C62F0E9490
:1008B0005A036C2F6460C8010E945A036C2F6B7F2F
:1008C000C8010E945A0383EC90E00197F1F7CF91A1
:1008D0001F910F9108950F931F93CF93DF938C0176
:1008E000D62FC42F607F642B0E94520480E1D89FD2
:1008F000B00111246C2BC801DF91CF911F910F9192
:100900000C94520440E061E08DE593E00E946B049A
:100910008BE39FE10197F1F70895CF93DF93CDB774
:10092000DEB728970FB6F894DEBF0FBECDBF98E0B4
:10093000E9E1F1E0DE01119601900D929A95E1F75F
:1009400090916603961710F46FEF690F262F30E031
:10095000220F331F41E050E04C0F5D1F240F351F65
:10096000F9016081680F606840E08DE593E02896AA
:100970000FB6F894DEBF0FBECDBFDF91CF910C94C0
:100980006B04CF93DF931092DB021092DA02109285
:10099000D9021092D8020E9495028DE890E09093BF
:1009A000D7028093D6028EE890E09093D502809390
:1009B000D4021092620380916603823018F098E0AE
:1009C0009093620390916703992339F0813029F461
:1009D0008091620384608093620362E370E080E050
:1009E00090E00E943C02609168038DE593E00E94D4
:1009F0005A0368EE73E080E090E00E943C0260E3FE
:100A00008DE593E00E945204CBE4D6E4CE01019739
:100A1000F1F760E38DE593E00E9452042197F1F72E
:100A200060E38DE593E00E94520483E592E0019734
:100A3000F1F760E28DE593E00E9452046091620359
:100A4000606240E08DE593E00E946B0484E0809357
:100A5000630340E06CE08DE593E00E946B040E942C
:100A6000820482E08093640340E066E08DE593E0D9
:100A70000E946B0440E062E08DE593E00E946B040D
:100A80008BE39FE10197F1F7DF91CF91089541E06A
:100A90000E946B0481E090E00895FC010190002029
:100AA000E9F73197AF01481B590BBC018DE593E085
:100AB0000C942301FC0180819181009711F00C942A
:100AC000460C0895EF92FF920F931F93CF93DF93FD
:100AD000EC017B018A0188819981009729F02A81A4
:100AE0003B812417350788F4B8016F5F7F4F0E9460
:100AF000CF0C009791F0998388831B830A832C8104
:100B00003D81232B11F4FC0110821D830C83B7015E
:100B1000888199810E94950D0CC0888199810097E8
:100B200011F00E94460C198218821D821C821B82C1
:100B30001A82CE01DF91CF911F910F91FF90EF901C
:100B4000089585ED8093BC0080919E0290919F0254
:100B5000A091A002B091A1020796A11DB11D23E0B2
:100B6000B695A795979587952A95D1F72091BC00C2
:100B700024FD03C010929C02089540919E02509162
:100B80009F026091A0027091A102452B462B472B3A
:100B900069F30097A105B10541F025E32A95F1F726
:100BA00000000197A109B109E1CF80919D020C9449
:100BB000B3021F920F920FB60F9211242F933F93FF
:100BC0008F939F93AF93BF938091D0029091D10266
:100BD000A091D202B091D3023091C40223E0230F3E
:100BE0002D3758F50196A11DB11D2093C4028093A5
:100BF000D0029093D102A093D202B093D3028091FD
:100C0000C5029091C602A091C702B091C802019698
:100C1000A11DB11D8093C5029093C602A093C70287
:100C2000B093C802BF91AF919F918F913F912F9147
:100C30000F900FBE0F901F90189526E8230F029675
:100C4000A11DB11DD2CF1F920F920FB60F9211248A
:100C50002F933F934F935F936F937F938F939F93C4
:100C6000AF93BF93EF93FF938091B900887F803655
:100C700009F44AC0F0F5883209F4A7C018F58031AC
:100C800009F49BC0B8F4882309F4F9C0883009F44A
:100C900094C0FF91EF91BF91AF919F918F917F9100
:100CA0006F915F914F913F912F910F900FBE0F90D9
:100CB0001F901895883109F488C0803251F78093CD
:100CC0009A0214C0803409F49DC040F48033B9F313
:100CD0008833F9F680939A0285ECB0C0803509F428
:100CE00085C0883509F496C0883499F60E94A1051C
:100CF000D0CF883909F48CC038F5883729F050F402
:100D0000883611F0803729F683E080939C02109298
:100D1000750257C0883809F47BC0803919F08038D3
:100D200009F0B7CF80917502803208F071C0E09170
:100D3000750281E08E0F809375028091BB00F0E018
:100D4000EB5AFD4F80833DC0803B39F0E0F4803AA0
:100D500009F479C0883A09F09CCF84E080939C0222
:100D60001092540210925302E091D602F091D702F1
:100D700009958091530281110FC081E08093530245
:100D80001092330209C0803C09F4A6CF883C09F4D4
:100D9000A3CF883B09F07DCFE091540281E08E0F14
:100DA00080935402F0E0ED5CFD4F80818093BB00A6
:100DB000909154028091530229C0809177028093D0
:100DC000BB0085EC8093BC0064CF90919902809128
:100DD0009802981758F5E091990281E08E0F809360
:100DE0009902F0E0E858FD4F8081E9CFE091990247
:100DF00081E08E0F809399028091BB00F0E0E8586B
:100E0000FD4F808390919902809198029817C8F2C3
:100E100085E8D8CFE091990281E08E0F8093990206
:100E20008091BB00F0E0E858FD4F808380919B02E9
:100E300081115CCF81E08093760284EA8093BC00CC
:100E400010929C0226CF85EC8093BC0010929C02ED
:100E500080917502803230F4E0917502F0E0EB5A37
:100E6000FD4F10826091750270E0E091D402F09124
:100E7000D50285E592E00995109275020ACF10928D
:100E80009A0234CF1092DF021092DE0288EE93E0D5
:100E9000A0E0B0E08093E0029093E102A093E20230
:100EA000B093E30285E291E09093DD028093DC024F
:100EB0001092600310925F0381E491E090935E03CF
:100EC00080935D038FE38093610384E180936503E6
:100ED00084E0809366031092670388E08093680340
:100EE000109258031092570310925A03109259030C
:100EF00010925C0310925B0344E050E069E471E0FF
:100F000087E593E00E9462051092EA021092EE02D9
:100F10001092ED021092EF0287E391E09093E902C4
:100F20008093E802E4E0F3E01082148213821582D9
:100F3000369683E0E034F807B9F783E091E09093C8
:100F40004B0380934A0380E091E090934D0380939C
:100F50004C0384E080934E0383E080934F0387E04B
:100F600091E090934903809348038AE090E0909346
:100F700051038093500384EF91E090935303809347
:100F8000520310925603109255031092440310928C
:100F9000450310924603109247031092540308959C
:100FA000CF93DF93CDB7DEB76C970FB6F894DEBF63
:100FB0000FBECDBF789484B5826084BD84B5816056
:100FC00084BD85B5826085BD85B5816085BD809114
:100FD0006E00816080936E0010928100809181008C
:100FE0008260809381008091810081608093810084
:100FF000809180008160809380008091B100846046
:101000008093B1008091B00081608093B0008091A6
:101010007A00846080937A0080917A008260809365
:101020007A0080917A00816080937A0080917A00C2
:10103000806880937A001092C10061E08AE00E948B
:10104000D70161E08BE00E94D70161E08CE00E9453
:10105000D7010E94C1040E94C10488E08093680304
:1010600060E08DE593E00E945A038EE491E00E94D7
:101070004D0561E080E00E948D0483E691E00E94CE
:101080004D0562E080E00E948D0488E791E00E94B7
:101090004D0563E080E00E948D048DE891E00E94A0
:1010A0004D0568EB7BE080E090E00E943C020E94EE
:1010B00082040E94440464E170E080E090E00E94B9
:1010C0003C02812C912C540183943E0123E1620E59
:1010D000711C6E0139E1C30ED11C0E94820482EAA8
:1010E00091E00E944D0564E670E080E090E00E948F
:1010F0003C0281E0809354038FB7F8944091D00272
:101100005091D1026091D2027091D3028FBF809131
:10111000440390914503A0914603B0914703481BB7
:10112000590B6A0B7B0B8091500390915103B0E0F7
:10113000A0E084179507A607B70708F015C110E0CF
:1011400080914E03181760F4E0914A03F0914B032D
:10115000E10FF11D62E080810E94D7011F5FF0CF97
:10116000312C80914F03381608F064C0E32CF12C29
:10117000E0914C03F0914D03EE0DFF1D61E0808185
:101180000E94D701E0914C03F0914D03EE0DFF1D3D
:1011900060E080810E94A501D501C401032C04C038
:1011A000880F991FAA1FBB1F0A94D2F79C8F8B8FA1
:1011B0002C0140945094212C80914E03281618F550
:1011C000022D10E0E0914A03F0914B03E00FF11F74
:1011D00080810E9479010C5F1F4F000F111FF801E1
:1011E000E851FD4F892B51F4808191812B8D3C8DED
:1011F000822B932B918380832394DECF80819181F6
:1012000084219521F7CFE0914C03F0914D03EE0D31
:10121000FF1D61E080810E94A50180914C039091A7
:101220004D03E80EF91E60E0F70180810E94D701AE
:10123000339497CF08EE12E07801F701878D90A1E3
:10124000892B31F4148E2FEF3FEF368F258F11A2AB
:1012500036E0E30EF11C54E2E51653E0F50669F7BB
:10126000512C80914E03581608F053C0412C252C68
:10127000312C220C331CC10180519D4F1C01209147
:101280004F03421608F043C0F10160817181042CC4
:1012900002C0769567950A94E2F7529E9001112458
:1012A000240D311DE8EEF2E080E0458D568D2417C7
:1012B000350709F40CC28F5F36968A30B1F760FFAC
:1012C00024C0E8EEF2E090E080E0448D411118C0C7
:1012D000E0914803F0914903E20FF31F408156E08B
:1012E000589FF001599FF00D1124E851FD4F448F94
:1012F000368F258F10A2178E61E00E94B20005C0C4
:10130000019636968A30910501F74394B8CF5394ED
:10131000A8CF80E0F80191A19111892F0A5F1F4F9A
:10132000E016F106B9F79FB7F8944091D0025091BA
:10133000D1026091D2027091D3029FBF40934403C7
:10134000509345036093460370934703882361F0ED
:1013500080910903882341F080910703909108034D
:1013600050900403019719F010925403512C8E01F0
:101370000F5F1F4F7801F8011182108213821282D1
:101380001582148250E040E06CE871E0C8010E94D0
:1013900062050A5F1F4F0615170569F7552009F406
:1013A00095C00E94820482EA91E00E944D0500915E
:1013B000CE021091CF0262E0802F0E948D0441E0A6
:1013C000652D8DE593E00E946B0464EF71E080E091
:1013D00090E00E943C02FAE25F1619F023E25212FA
:1013E00088C01092CF021092CE020E9444040E9444
:1013F00082048091CE029091CF02049709F066C0DA
:101400008091CC029091CD02181619060CF029C1DA
:101410008091CA029091CB0201969093CB02809367
:10142000CA021092CD021092CC021092CF021092FA
:10143000CE020E94820462E080E00E948D0487EB6D
:1014400091E00E944D0568EE73E080E090E00E941C
:101450003C020E9444048091CA029091CB020397FF
:10146000A9F51092CB021092CA020E94820461E098
:1014700080E00E948D048BEE91E00E944D0562E0B9
:1014800080E00E948D0480E092E00E944D050AE019
:1014900010E061E08CE00E94A50168EE73E080E05E
:1014A00090E00E943C0260E08CE00E94A50168EEA2
:1014B00073E080E090E00E943C020150110949F77E
:1014C00064EF71E080E090E00E943C02CE010D9656
:1014D0000E945A05CE0107960E945A05C7010E9434
:1014E0005A0580E090E0892B09F4F7CD0E940000B6
:1014F000F4CD80915B0390915C030817190730F4D9
:10150000E0915703F0915803309779F51092C90292
:10151000E9ECF2E02081251186C01C8A1B8A1E8A14
:101520001D8A188E1F8A598E1A8EF601019000208E
:10153000E9F731978F010C191D09B8016F5F7F4FD3
:1015400090E080E00E94CF0C009791F09C8B8B8BF9
:101550001E8B0D8B2F89388D232B09F443C0188FD8
:101560000F8BB6010E94950D0DC0E00FF11FD2CF79
:101570008B899C890097C9F51C8A1B8A188E1F8A43
:101580001E8A1D8A0091CE021091CF02F6E0F09FD4
:101590002001F19F500C11244E0C5F1CF201808140
:1015A0009181009739F16B897C896115710501F191
:1015B000428153812F89388D42175307C8F00E940A
:1015C000950D8F89988DF20195838483188E1F8ADB
:1015D000C3010E945A050F5F1F4F1093CF02009363
:1015E000CE0207CFFC011082BACF0E94460CC4CFB6
:1015F0000E94460C26E0209FF001219FF00D11244F
:10160000EE0DFF1D8B899C89918380838D899E8936
:10161000938382838F89988D958384831C8A1B8A08
:101620001E8A1D8AD3CF0817190730F4E09157039B
:10163000F0915803309791F41092C902E9ECF2E06E
:101640008081851509F4D5CE8091CC029091CD0290
:1016500001969093CD028093CC02BDCFE00FF11F95
:10166000EFCF892B09F0F7CE1092CF021092CE0265
:101670000E94820461E080E00E948D048CEC91E085
:101680000E944D0562E085E00E948D0480EE91E0AD
:101690000E944D0560ED77E080E090E00E943C0202
:1016A00060E08AE00E94A50161E08BE00E94A50154
:1016B00060ED77E080E090E00E943C0261E08AE02B
:1016C0000E94A50160E08BE00E94A501C4CE61707C
:1016D00014CE87E593E00C945A052F923F924F92D7
:1016E0005F926F927F928F929F92AF92BF92CF92B2
:1016F000DF92EF92FF920F931F93CF93DF93CDB7BB
:10170000DEB7CA1BDB0B0FB6F894DEBF0FBECDBF32
:1017100009942A88398848885F846E847D848C8403
:101720009B84AA84B984C884DF80EE80FD800C810C
:101730001B81AA81B981CE0FD11D0FB6F894DEBFEF
:101740000FBECDBFED010895EE0FFF1F0590F49180
:10175000E02D09940F931F93CF93DF93823091056F
:1017600010F482E090E0E0916B03F0916C0330E0C4
:1017700020E0B0E0A0E0309799F42115310509F49C
:101780004AC0281B390B24303105D8F58A819B814A
:101790006115710589F1FB0193838283FE0111C0FC
:1017A000408151810281138148175907E0F04817A1
:1017B000590799F4109761F012960C9312971396AB
:1017C0001C933296CF01DF91CF911F910F91089515
:1017D00000936B0310936C03F4CF2115310551F086
:1017E0004217530738F0A901DB019A01BD01DF015F
:1017F000F801C1CFEF01F9CF90936C0380936B0395
:10180000CDCFFE01E20FF31F819391932250310956
:1018100039832883D7CF2091690330916A03232B22
:1018200041F4209115013091160130936A03209301
:10183000690320911301309114012115310541F400
:101840002DB73EB74091170150911801241B350B5D
:10185000E0916903F0916A03E217F307A0F42E1BED
:101860003F0B2817390778F0AC014E5F5F4F241704
:10187000350748F04E0F5F1F50936A03409369038A
:10188000819391939FCFF0E0E0E09CCFCF93DF93E3
:101890000097E9F0FC01329713821282A0916B034A
:1018A000B0916C03ED0130E020E01097A1F42081AD
:1018B0003181820F931F2091690330916A032817A9
:1018C000390709F061C0F0936A03E0936903DF917F
:1018D000CF910895EA01CE17DF07E8F54A815B81D1
:1018E0009E0141155105B1F7E901FB83EA83499156
:1018F0005991C40FD51FEC17FD0761F480819181C8
:101900000296840F951FE9019983888382819381D0
:101910009B838A83F0E0E0E012968D919C9113976F
:101920000097B9F52D913C911197CD010296820F48
:10193000931F2091690330916A032817390739F6FC
:10194000309751F510926C0310926B03B0936A03B9
:10195000A0936903BCCFD383C28340815181840F9C
:10196000951FC817D90761F44E5F5F4F8881998131
:10197000480F591F518340838A819B8193838283BF
:101980002115310509F0B0CFF0936C03E0936B03A0
:101990009ECFFD01DC01C0CF13821282D7CFB0E011
:1019A000A0E0E5EDFCE00C946F0B8C01009751F486
:1019B000CB010E94AA0B8C01C801CDB7DEB7E0E1D4
:1019C0000C948B0BFC01E60FF71F9C012250310990
:1019D000E217F30708F49DC0D901CD91DC9111976E
:1019E000C617D70798F0C530D10530F3CE0104975C
:1019F0008617970708F3C61BD70B2297C193D1937D
:101A00006D937C93CF010E94460CD6CF5B01AC1A3C
:101A1000BD0A4C018C0E9D1EA0916B03B0916C030E
:101A2000512C412CF12CE12C109731F58091690358
:101A300090916A038815990509F05CC0461657060F
:101A400008F058C08091130190911401009741F45F
:101A50008DB79EB74091170150911801841B950BCB
:101A6000E817F90708F055C0F0936A03E09369039B
:101A7000F90171836083A0CF8D919C91119712968B
:101A80006C90129713967C901397A815B90559F589
:101A90006C0142E0C40ED11CCA14DB0420F1AC017D
:101AA0004A195B09DA011296159780F062827382F7
:101AB00051834083D9016D937C93E114F10471F05B
:101AC000D7011396FC93EE93129776CF22968C0F44
:101AD0009D1FF90191838083F301EFCFF0936C0395
:101AE000E0936B0369CF4816590608F42C017D0179
:101AF000D3019ACFCB010E94AA0B7C01009749F039
:101B0000AE01B8010E948C0DC8010E94460C8701ED
:101B100053CF10E000E050CFFB01DC0102C0019088
:101B20000D9241505040D8F70895FB01DC0101901F
:101B30000D920020E1F7089510E0C2E6D0E004C065
:101B4000FE010E94A40B2196C336D107C9F7F89471
:101B5000FFCF030405060708093132333435363721
:101B600038392A302300006D038000000040001443
:101B7000005400000000002B03FE024104D402F7D1
:101B800002E402D502000000001302D301A201000A
:101B90000000004705230141042201363637390091
:101BA0002020202020347833204B65797061642018
:101BB00020202020002020204C6F636B696E67205E
:101BC00053797374656D2020200020202020202070
:101BD00020202042793A2020202020202020004868
:101BE0006F6D6520536563757269747920537973DD
:101BF00074656D0020456E74657220556E6C6F6360
:101C00006B20436F64653A20002020202057726FBC
:101C10006E6720436F646521202020202000202053
:101C20002020202057656C636F6D652120202020C7
:101C3000200020446F6F72204F70656E00202020BE
:101C4000205741524E494E4720202121212120205A
:101C500020002020204163636573732044656E6912
:041C600065640000B7
:107E0000112484B714BE81FFF0D085E080938100F7
:107E100082E08093C00088E18093C10086E0809377
:107E2000C20080E18093C4008EE0C9D0259A86E02C
:107E300020E33CEF91E0309385002093840096BBD3
:107E4000B09BFECF1D9AA8958150A9F7CC24DD24C4
:107E500088248394B5E0AB2EA1E19A2EF3E0BF2EE7
:107E6000A2D0813461F49FD0082FAFD0023811F036
:107E7000013811F484E001C083E08DD089C08234E0
:107E800011F484E103C0853419F485E0A6D080C0E4
:107E9000853579F488D0E82EFF2485D0082F10E0AE
:107EA000102F00270E291F29000F111F8ED06801E7
:107EB0006FC0863521F484E090D080E0DECF843638
:107EC00009F040C070D06FD0082F6DD080E0C81688
:107ED00080E7D80618F4F601B7BEE895C0E0D1E017
:107EE00062D089930C17E1F7F0E0CF16F0E7DF06D8
:107EF00018F0F601B7BEE89568D007B600FCFDCFD4
:107F0000A601A0E0B1E02C9130E011968C91119780
:107F100090E0982F8827822B932B1296FA010C0160
:107F200087BEE89511244E5F5F4FF1E0A038BF0790
:107F300051F7F601A7BEE89507B600FCFDCF97BE46
:107F4000E89526C08437B1F42ED02DD0F82E2BD052
:107F50003CD0F601EF2C8F010F5F1F4F84911BD097
:107F6000EA94F801C1F70894C11CD11CFA94CF0C13
:107F7000D11C0EC0853739F428D08EE10CD085E9AC
:107F80000AD08FE07ACF813511F488E018D01DD067
:107F900080E101D065CF982F8091C00085FFFCCF94
:107FA0009093C60008958091C00087FFFCCF809118
:107FB000C00084FD01C0A8958091C6000895E0E648
:107FC000F0E098E1908380830895EDDF803219F02E
:107FD00088E0F5DFFFCF84E1DECF1F93182FE3DFCA
:107FE0001150E9F7F2DF1F91089580E0E8DFEE27F6
:047FF000FF270994CA
:027FFE00040479
:00000001FF
